{
  "_format": "hh-sol-artifact-1",
  "contractName": "MyContract",
  "sourceName": "contracts/MyContract.sol",
  "abi": [
    {
      "inputs": [],
      "stateMutability": "nonpayable",
      "type": "constructor"
    },
    {
      "inputs": [
        {
          "internalType": "address",
          "name": "sender",
          "type": "address"
        },
        {
          "internalType": "uint256",
          "name": "tokenId",
          "type": "uint256"
        },
        {
          "internalType": "address",
          "name": "owner",
          "type": "address"
        }
      ],
      "name": "ERC721IncorrectOwner",
      "type": "error"
    },
    {
      "inputs": [
        {
          "internalType": "address",
          "name": "operator",
          "type": "address"
        },
        {
          "internalType": "uint256",
          "name": "tokenId",
          "type": "uint256"
        }
      ],
      "name": "ERC721InsufficientApproval",
      "type": "error"
    },
    {
      "inputs": [
        {
          "internalType": "address",
          "name": "approver",
          "type": "address"
        }
      ],
      "name": "ERC721InvalidApprover",
      "type": "error"
    },
    {
      "inputs": [
        {
          "internalType": "address",
          "name": "operator",
          "type": "address"
        }
      ],
      "name": "ERC721InvalidOperator",
      "type": "error"
    },
    {
      "inputs": [
        {
          "internalType": "address",
          "name": "owner",
          "type": "address"
        }
      ],
      "name": "ERC721InvalidOwner",
      "type": "error"
    },
    {
      "inputs": [
        {
          "internalType": "address",
          "name": "receiver",
          "type": "address"
        }
      ],
      "name": "ERC721InvalidReceiver",
      "type": "error"
    },
    {
      "inputs": [
        {
          "internalType": "address",
          "name": "sender",
          "type": "address"
        }
      ],
      "name": "ERC721InvalidSender",
      "type": "error"
    },
    {
      "inputs": [
        {
          "internalType": "uint256",
          "name": "tokenId",
          "type": "uint256"
        }
      ],
      "name": "ERC721NonexistentToken",
      "type": "error"
    },
    {
      "anonymous": false,
      "inputs": [
        {
          "indexed": true,
          "internalType": "address",
          "name": "owner",
          "type": "address"
        },
        {
          "indexed": true,
          "internalType": "address",
          "name": "approved",
          "type": "address"
        },
        {
          "indexed": true,
          "internalType": "uint256",
          "name": "tokenId",
          "type": "uint256"
        }
      ],
      "name": "Approval",
      "type": "event"
    },
    {
      "anonymous": false,
      "inputs": [
        {
          "indexed": true,
          "internalType": "address",
          "name": "owner",
          "type": "address"
        },
        {
          "indexed": true,
          "internalType": "address",
          "name": "operator",
          "type": "address"
        },
        {
          "indexed": false,
          "internalType": "bool",
          "name": "approved",
          "type": "bool"
        }
      ],
      "name": "ApprovalForAll",
      "type": "event"
    },
    {
      "anonymous": false,
      "inputs": [
        {
          "indexed": false,
          "internalType": "uint256",
          "name": "_fromTokenId",
          "type": "uint256"
        },
        {
          "indexed": false,
          "internalType": "uint256",
          "name": "_toTokenId",
          "type": "uint256"
        }
      ],
      "name": "BatchMetadataUpdate",
      "type": "event"
    },
    {
      "anonymous": false,
      "inputs": [
        {
          "indexed": false,
          "internalType": "uint256",
          "name": "_tokenId",
          "type": "uint256"
        }
      ],
      "name": "MetadataUpdate",
      "type": "event"
    },
    {
      "anonymous": false,
      "inputs": [
        {
          "indexed": true,
          "internalType": "address",
          "name": "from",
          "type": "address"
        },
        {
          "indexed": true,
          "internalType": "address",
          "name": "to",
          "type": "address"
        },
        {
          "indexed": true,
          "internalType": "uint256",
          "name": "tokenId",
          "type": "uint256"
        }
      ],
      "name": "Transfer",
      "type": "event"
    },
    {
      "inputs": [
        {
          "internalType": "address",
          "name": "to",
          "type": "address"
        },
        {
          "internalType": "uint256",
          "name": "tokenId",
          "type": "uint256"
        }
      ],
      "name": "approve",
      "outputs": [],
      "stateMutability": "nonpayable",
      "type": "function"
    },
    {
      "inputs": [
        {
          "internalType": "address",
          "name": "owner",
          "type": "address"
        }
      ],
      "name": "balanceOf",
      "outputs": [
        {
          "internalType": "uint256",
          "name": "",
          "type": "uint256"
        }
      ],
      "stateMutability": "view",
      "type": "function"
    },
    {
      "inputs": [
        {
          "internalType": "uint256",
          "name": "tokenId",
          "type": "uint256"
        }
      ],
      "name": "getApproved",
      "outputs": [
        {
          "internalType": "address",
          "name": "",
          "type": "address"
        }
      ],
      "stateMutability": "view",
      "type": "function"
    },
    {
      "inputs": [
        {
          "internalType": "address",
          "name": "owner",
          "type": "address"
        },
        {
          "internalType": "address",
          "name": "operator",
          "type": "address"
        }
      ],
      "name": "isApprovedForAll",
      "outputs": [
        {
          "internalType": "bool",
          "name": "",
          "type": "bool"
        }
      ],
      "stateMutability": "view",
      "type": "function"
    },
    {
      "inputs": [
        {
          "internalType": "address",
          "name": "_to",
          "type": "address"
        },
        {
          "internalType": "string",
          "name": "_tokenURI",
          "type": "string"
        },
        {
          "internalType": "string",
          "name": "_prompt",
          "type": "string"
        }
      ],
      "name": "mintNFT",
      "outputs": [
        {
          "internalType": "uint256",
          "name": "",
          "type": "uint256"
        }
      ],
      "stateMutability": "nonpayable",
      "type": "function"
    },
    {
      "inputs": [],
      "name": "name",
      "outputs": [
        {
          "internalType": "string",
          "name": "",
          "type": "string"
        }
      ],
      "stateMutability": "view",
      "type": "function"
    },
    {
      "inputs": [
        {
          "internalType": "uint256",
          "name": "tokenId",
          "type": "uint256"
        }
      ],
      "name": "ownerOf",
      "outputs": [
        {
          "internalType": "address",
          "name": "",
          "type": "address"
        }
      ],
      "stateMutability": "view",
      "type": "function"
    },
    {
      "inputs": [
        {
          "internalType": "uint256",
          "name": "tokenId",
          "type": "uint256"
        }
      ],
      "name": "promptDescription",
      "outputs": [
        {
          "internalType": "string",
          "name": "",
          "type": "string"
        }
      ],
      "stateMutability": "view",
      "type": "function"
    },
    {
      "inputs": [
        {
          "internalType": "address",
          "name": "from",
          "type": "address"
        },
        {
          "internalType": "address",
          "name": "to",
          "type": "address"
        },
        {
          "internalType": "uint256",
          "name": "tokenId",
          "type": "uint256"
        }
      ],
      "name": "safeTransferFrom",
      "outputs": [],
      "stateMutability": "nonpayable",
      "type": "function"
    },
    {
      "inputs": [
        {
          "internalType": "address",
          "name": "from",
          "type": "address"
        },
        {
          "internalType": "address",
          "name": "to",
          "type": "address"
        },
        {
          "internalType": "uint256",
          "name": "tokenId",
          "type": "uint256"
        },
        {
          "internalType": "bytes",
          "name": "data",
          "type": "bytes"
        }
      ],
      "name": "safeTransferFrom",
      "outputs": [],
      "stateMutability": "nonpayable",
      "type": "function"
    },
    {
      "inputs": [
        {
          "internalType": "address",
          "name": "operator",
          "type": "address"
        },
        {
          "internalType": "bool",
          "name": "approved",
          "type": "bool"
        }
      ],
      "name": "setApprovalForAll",
      "outputs": [],
      "stateMutability": "nonpayable",
      "type": "function"
    },
    {
      "inputs": [
        {
          "internalType": "bytes4",
          "name": "interfaceId",
          "type": "bytes4"
        }
      ],
      "name": "supportsInterface",
      "outputs": [
        {
          "internalType": "bool",
          "name": "",
          "type": "bool"
        }
      ],
      "stateMutability": "view",
      "type": "function"
    },
    {
      "inputs": [],
      "name": "symbol",
      "outputs": [
        {
          "internalType": "string",
          "name": "",
          "type": "string"
        }
      ],
      "stateMutability": "view",
      "type": "function"
    },
    {
      "inputs": [
        {
          "internalType": "uint256",
          "name": "tokenId",
          "type": "uint256"
        }
      ],
      "name": "tokenURI",
      "outputs": [
        {
          "internalType": "string",
          "name": "",
          "type": "string"
        }
      ],
      "stateMutability": "view",
      "type": "function"
    },
    {
      "inputs": [
        {
          "internalType": "address",
          "name": "from",
          "type": "address"
        },
        {
          "internalType": "address",
          "name": "to",
          "type": "address"
        },
        {
          "internalType": "uint256",
          "name": "tokenId",
          "type": "uint256"
        }
      ],
      "name": "transferFrom",
      "outputs": [],
      "stateMutability": "nonpayable",
      "type": "function"
    }
  ],
  "bytecode": "0x60806040523480156200001157600080fd5b506040518060400160405280600c81526020017f4865726d616e6e546f6b656e00000000000000000000000000000000000000008152506040518060400160405280600381526020017f48544b000000000000000000000000000000000000000000000000000000000081525081600090816200008f91906200036d565b508060019081620000a191906200036d565b505050600060088190555033600760006101000a81548173ffffffffffffffffffffffffffffffffffffffff021916908373ffffffffffffffffffffffffffffffffffffffff16021790555062000454565b600081519050919050565b7f4e487b7100000000000000000000000000000000000000000000000000000000600052604160045260246000fd5b7f4e487b7100000000000000000000000000000000000000000000000000000000600052602260045260246000fd5b600060028204905060018216806200017557607f821691505b6020821081036200018b576200018a6200012d565b5b50919050565b60008190508160005260206000209050919050565b60006020601f8301049050919050565b600082821b905092915050565b600060088302620001f57fffffffffffffffffffffffffffffffffffffffffffffffffffffffffffffffff82620001b6565b620002018683620001b6565b95508019841693508086168417925050509392505050565b6000819050919050565b6000819050919050565b60006200024e62000248620002428462000219565b62000223565b62000219565b9050919050565b6000819050919050565b6200026a836200022d565b62000282620002798262000255565b848454620001c3565b825550505050565b600090565b620002996200028a565b620002a68184846200025f565b505050565b5b81811015620002ce57620002c26000826200028f565b600181019050620002ac565b5050565b601f8211156200031d57620002e78162000191565b620002f284620001a6565b8101602085101562000302578190505b6200031a6200031185620001a6565b830182620002ab565b50505b505050565b600082821c905092915050565b6000620003426000198460080262000322565b1980831691505092915050565b60006200035d83836200032f565b9150826002028217905092915050565b6200037882620000f3565b67ffffffffffffffff811115620003945762000393620000fe565b5b620003a082546200015c565b620003ad828285620002d2565b600060209050601f831160018114620003e55760008415620003d0578287015190505b620003dc85826200034f565b8655506200044c565b601f198416620003f58662000191565b60005b828110156200041f57848901518255600182019150602085019450602081019050620003f8565b868310156200043f57848901516200043b601f8916826200032f565b8355505b6001600288020188555050505b505050505050565b6126fa80620004646000396000f3fe608060405234801561001057600080fd5b50600436106100f55760003560e01c806370a0823111610097578063a3ee38ae11610066578063a3ee38ae14610296578063b88d4fde146102c6578063c87b56dd146102e2578063e985e9c514610312576100f5565b806370a08231146101fc5780638e5a86381461022c57806395d89b411461025c578063a22cb4651461027a576100f5565b8063095ea7b3116100d3578063095ea7b31461017857806323b872dd1461019457806342842e0e146101b05780636352211e146101cc576100f5565b806301ffc9a7146100fa57806306fdde031461012a578063081812fc14610148575b600080fd5b610114600480360381019061010f9190611a39565b610342565b6040516101219190611a81565b60405180910390f35b6101326103a3565b60405161013f9190611b2c565b60405180910390f35b610162600480360381019061015d9190611b84565b610435565b60405161016f9190611bf2565b60405180910390f35b610192600480360381019061018d9190611c39565b610451565b005b6101ae60048036038101906101a99190611c79565b610467565b005b6101ca60048036038101906101c59190611c79565b610569565b005b6101e660048036038101906101e19190611b84565b610589565b6040516101f39190611bf2565b60405180910390f35b61021660048036038101906102119190611ccc565b61059b565b6040516102239190611d08565b60405180910390f35b61024660048036038101906102419190611b84565b610655565b6040516102539190611b2c565b60405180910390f35b61026461075a565b6040516102719190611b2c565b60405180910390f35b610294600480360381019061028f9190611d4f565b6107ec565b005b6102b060048036038101906102ab9190611ec4565b610802565b6040516102bd9190611d08565b60405180910390f35b6102e060048036038101906102db9190611ff0565b610921565b005b6102fc60048036038101906102f79190611b84565b61093e565b6040516103099190611b2c565b60405180910390f35b61032c60048036038101906103279190612073565b610a51565b6040516103399190611a81565b60405180910390f35b6000634906490660e01b7bffffffffffffffffffffffffffffffffffffffffffffffffffffffff1916827bffffffffffffffffffffffffffffffffffffffffffffffffffffffff1916148061039c575061039b82610ae5565b5b9050919050565b6060600080546103b2906120e2565b80601f01602080910402602001604051908101604052809291908181526020018280546103de906120e2565b801561042b5780601f106104005761010080835404028352916020019161042b565b820191906000526020600020905b81548152906001019060200180831161040e57829003601f168201915b5050505050905090565b600061044082610bc7565b5061044a82610c4f565b9050919050565b610463828261045e610c8c565b610c94565b5050565b600073ffffffffffffffffffffffffffffffffffffffff168273ffffffffffffffffffffffffffffffffffffffff16036104d95760006040517f64a0ae920000000000000000000000000000000000000000000000000000000081526004016104d09190611bf2565b60405180910390fd5b60006104ed83836104e8610c8c565b610ca6565b90508373ffffffffffffffffffffffffffffffffffffffff168173ffffffffffffffffffffffffffffffffffffffff1614610563578382826040517f64283d7b00000000000000000000000000000000000000000000000000000000815260040161055a93929190612113565b60405180910390fd5b50505050565b61058483838360405180602001604052806000815250610921565b505050565b600061059482610bc7565b9050919050565b60008073ffffffffffffffffffffffffffffffffffffffff168273ffffffffffffffffffffffffffffffffffffffff160361060e5760006040517f89c62b640000000000000000000000000000000000000000000000000000000081526004016106059190611bf2565b60405180910390fd5b600360008373ffffffffffffffffffffffffffffffffffffffff1673ffffffffffffffffffffffffffffffffffffffff168152602001908152602001600020549050919050565b60606009600083815260200190815260200160002060009054906101000a900460ff166106b7576040517f08c379a00000000000000000000000000000000000000000000000000000000081526004016106ae906121bc565b60405180910390fd5b600a600083815260200190815260200160002080546106d5906120e2565b80601f0160208091040260200160405190810160405280929190818152602001828054610701906120e2565b801561074e5780601f106107235761010080835404028352916020019161074e565b820191906000526020600020905b81548152906001019060200180831161073157829003601f168201915b50505050509050919050565b606060018054610769906120e2565b80601f0160208091040260200160405190810160405280929190818152602001828054610795906120e2565b80156107e25780601f106107b7576101008083540402835291602001916107e2565b820191906000526020600020905b8154815290600101906020018083116107c557829003601f168201915b5050505050905090565b6107fe6107f7610c8c565b8383610ec0565b5050565b6000600760009054906101000a900473ffffffffffffffffffffffffffffffffffffffff1673ffffffffffffffffffffffffffffffffffffffff163373ffffffffffffffffffffffffffffffffffffffff1614610894576040517f08c379a000000000000000000000000000000000000000000000000000000000815260040161088b90612228565b60405180910390fd5b6001600860008282546108a79190612277565b92505081905550600060085490506108bf858261102f565b6108c98185611128565b60016009600083815260200190815260200160002060006101000a81548160ff02191690831515021790555082600a600083815260200190815260200160002090816109159190612457565b50809150509392505050565b61092c848484610467565b61093884848484611184565b50505050565b606061094982610bc7565b50600060066000848152602001908152602001600020805461096a906120e2565b80601f0160208091040260200160405190810160405280929190818152602001828054610996906120e2565b80156109e35780601f106109b8576101008083540402835291602001916109e3565b820191906000526020600020905b8154815290600101906020018083116109c657829003601f168201915b5050505050905060006109f461133b565b90506000815103610a09578192505050610a4c565b600082511115610a3e578082604051602001610a26929190612565565b60405160208183030381529060405292505050610a4c565b610a4784611352565b925050505b919050565b6000600560008473ffffffffffffffffffffffffffffffffffffffff1673ffffffffffffffffffffffffffffffffffffffff16815260200190815260200160002060008373ffffffffffffffffffffffffffffffffffffffff1673ffffffffffffffffffffffffffffffffffffffff16815260200190815260200160002060009054906101000a900460ff16905092915050565b60007f80ac58cd000000000000000000000000000000000000000000000000000000007bffffffffffffffffffffffffffffffffffffffffffffffffffffffff1916827bffffffffffffffffffffffffffffffffffffffffffffffffffffffff19161480610bb057507f5b5e139f000000000000000000000000000000000000000000000000000000007bffffffffffffffffffffffffffffffffffffffffffffffffffffffff1916827bffffffffffffffffffffffffffffffffffffffffffffffffffffffff1916145b80610bc05750610bbf826113bb565b5b9050919050565b600080610bd383611425565b9050600073ffffffffffffffffffffffffffffffffffffffff168173ffffffffffffffffffffffffffffffffffffffff1603610c4657826040517f7e273289000000000000000000000000000000000000000000000000000000008152600401610c3d9190611d08565b60405180910390fd5b80915050919050565b60006004600083815260200190815260200160002060009054906101000a900473ffffffffffffffffffffffffffffffffffffffff169050919050565b600033905090565b610ca18383836001611462565b505050565b600080610cb284611425565b9050600073ffffffffffffffffffffffffffffffffffffffff168373ffffffffffffffffffffffffffffffffffffffff1614610cf457610cf3818486611627565b5b600073ffffffffffffffffffffffffffffffffffffffff168173ffffffffffffffffffffffffffffffffffffffff1614610d8557610d36600085600080611462565b6001600360008373ffffffffffffffffffffffffffffffffffffffff1673ffffffffffffffffffffffffffffffffffffffff168152602001908152602001600020600082825403925050819055505b600073ffffffffffffffffffffffffffffffffffffffff168573ffffffffffffffffffffffffffffffffffffffff1614610e08576001600360008773ffffffffffffffffffffffffffffffffffffffff1673ffffffffffffffffffffffffffffffffffffffff168152602001908152602001600020600082825401925050819055505b846002600086815260200190815260200160002060006101000a81548173ffffffffffffffffffffffffffffffffffffffff021916908373ffffffffffffffffffffffffffffffffffffffff160217905550838573ffffffffffffffffffffffffffffffffffffffff168273ffffffffffffffffffffffffffffffffffffffff167fddf252ad1be2c89b69c2b068fc378daa952ba7f163c4a11628f55a4df523b3ef60405160405180910390a4809150509392505050565b600073ffffffffffffffffffffffffffffffffffffffff168273ffffffffffffffffffffffffffffffffffffffff1603610f3157816040517f5b08ba18000000000000000000000000000000000000000000000000000000008152600401610f289190611bf2565b60405180910390fd5b80600560008573ffffffffffffffffffffffffffffffffffffffff1673ffffffffffffffffffffffffffffffffffffffff16815260200190815260200160002060008473ffffffffffffffffffffffffffffffffffffffff1673ffffffffffffffffffffffffffffffffffffffff16815260200190815260200160002060006101000a81548160ff0219169083151502179055508173ffffffffffffffffffffffffffffffffffffffff168373ffffffffffffffffffffffffffffffffffffffff167f17307eab39ab6107e8899845ad3d59bd9653f200f220920489ca2b5937696c31836040516110229190611a81565b60405180910390a3505050565b600073ffffffffffffffffffffffffffffffffffffffff168273ffffffffffffffffffffffffffffffffffffffff16036110a15760006040517f64a0ae920000000000000000000000000000000000000000000000000000000081526004016110989190611bf2565b60405180910390fd5b60006110af83836000610ca6565b9050600073ffffffffffffffffffffffffffffffffffffffff168173ffffffffffffffffffffffffffffffffffffffff16146111235760006040517f73c6ac6e00000000000000000000000000000000000000000000000000000000815260040161111a9190611bf2565b60405180910390fd5b505050565b806006600084815260200190815260200160002090816111489190612457565b507ff8e1a15aba9398e019f0b49df1a4fde98ee17ae345cb5f6b5e2c27f5033e8ce7826040516111789190611d08565b60405180910390a15050565b60008373ffffffffffffffffffffffffffffffffffffffff163b1115611335578273ffffffffffffffffffffffffffffffffffffffff1663150b7a026111c8610c8c565b8685856040518563ffffffff1660e01b81526004016111ea94939291906125de565b6020604051808303816000875af192505050801561122657506040513d601f19601f82011682018060405250810190611223919061263f565b60015b6112aa573d8060008114611256576040519150601f19603f3d011682016040523d82523d6000602084013e61125b565b606091505b5060008151036112a257836040517f64a0ae920000000000000000000000000000000000000000000000000000000081526004016112999190611bf2565b60405180910390fd5b805181602001fd5b63150b7a0260e01b7bffffffffffffffffffffffffffffffffffffffffffffffffffffffff1916817bffffffffffffffffffffffffffffffffffffffffffffffffffffffff19161461133357836040517f64a0ae9200000000000000000000000000000000000000000000000000000000815260040161132a9190611bf2565b60405180910390fd5b505b50505050565b606060405180602001604052806000815250905090565b606061135d82610bc7565b50600061136861133b565b9050600081511161138857604051806020016040528060008152506113b3565b80611392846116eb565b6040516020016113a3929190612565565b6040516020818303038152906040525b915050919050565b60007f01ffc9a7000000000000000000000000000000000000000000000000000000007bffffffffffffffffffffffffffffffffffffffffffffffffffffffff1916827bffffffffffffffffffffffffffffffffffffffffffffffffffffffff1916149050919050565b60006002600083815260200190815260200160002060009054906101000a900473ffffffffffffffffffffffffffffffffffffffff169050919050565b808061149b5750600073ffffffffffffffffffffffffffffffffffffffff168273ffffffffffffffffffffffffffffffffffffffff1614155b156115cf5760006114ab84610bc7565b9050600073ffffffffffffffffffffffffffffffffffffffff168373ffffffffffffffffffffffffffffffffffffffff161415801561151657508273ffffffffffffffffffffffffffffffffffffffff168173ffffffffffffffffffffffffffffffffffffffff1614155b801561152957506115278184610a51565b155b1561156b57826040517fa9fbf51f0000000000000000000000000000000000000000000000000000000081526004016115629190611bf2565b60405180910390fd5b81156115cd57838573ffffffffffffffffffffffffffffffffffffffff168273ffffffffffffffffffffffffffffffffffffffff167f8c5be1e5ebec7d5bd14f71427d1e84f3dd0314c0f7b2291e5b200ac8c7c3b92560405160405180910390a45b505b836004600085815260200190815260200160002060006101000a81548173ffffffffffffffffffffffffffffffffffffffff021916908373ffffffffffffffffffffffffffffffffffffffff16021790555050505050565b6116328383836117b9565b6116e657600073ffffffffffffffffffffffffffffffffffffffff168373ffffffffffffffffffffffffffffffffffffffff16036116a757806040517f7e27328900000000000000000000000000000000000000000000000000000000815260040161169e9190611d08565b60405180910390fd5b81816040517f177e802f0000000000000000000000000000000000000000000000000000000081526004016116dd92919061266c565b60405180910390fd5b505050565b6060600060016116fa8461187a565b01905060008167ffffffffffffffff81111561171957611718611d99565b5b6040519080825280601f01601f19166020018201604052801561174b5781602001600182028036833780820191505090505b509050600082602001820190505b6001156117ae578080600190039150507f3031323334353637383961626364656600000000000000000000000000000000600a86061a8153600a85816117a2576117a1612695565b5b04945060008503611759575b819350505050919050565b60008073ffffffffffffffffffffffffffffffffffffffff168373ffffffffffffffffffffffffffffffffffffffff161415801561187157508273ffffffffffffffffffffffffffffffffffffffff168473ffffffffffffffffffffffffffffffffffffffff16148061183257506118318484610a51565b5b8061187057508273ffffffffffffffffffffffffffffffffffffffff1661185883610c4f565b73ffffffffffffffffffffffffffffffffffffffff16145b5b90509392505050565b600080600090507a184f03e93ff9f4daa797ed6e38ed64bf6a1f01000000000000000083106118d8577a184f03e93ff9f4daa797ed6e38ed64bf6a1f01000000000000000083816118ce576118cd612695565b5b0492506040810190505b6d04ee2d6d415b85acef81000000008310611915576d04ee2d6d415b85acef8100000000838161190b5761190a612695565b5b0492506020810190505b662386f26fc10000831061194457662386f26fc10000838161193a57611939612695565b5b0492506010810190505b6305f5e100831061196d576305f5e100838161196357611962612695565b5b0492506008810190505b612710831061199257612710838161198857611987612695565b5b0492506004810190505b606483106119b557606483816119ab576119aa612695565b5b0492506002810190505b600a83106119c4576001810190505b80915050919050565b6000604051905090565b600080fd5b600080fd5b60007fffffffff0000000000000000000000000000000000000000000000000000000082169050919050565b611a16816119e1565b8114611a2157600080fd5b50565b600081359050611a3381611a0d565b92915050565b600060208284031215611a4f57611a4e6119d7565b5b6000611a5d84828501611a24565b91505092915050565b60008115159050919050565b611a7b81611a66565b82525050565b6000602082019050611a966000830184611a72565b92915050565b600081519050919050565b600082825260208201905092915050565b60005b83811015611ad6578082015181840152602081019050611abb565b60008484015250505050565b6000601f19601f8301169050919050565b6000611afe82611a9c565b611b088185611aa7565b9350611b18818560208601611ab8565b611b2181611ae2565b840191505092915050565b60006020820190508181036000830152611b468184611af3565b905092915050565b6000819050919050565b611b6181611b4e565b8114611b6c57600080fd5b50565b600081359050611b7e81611b58565b92915050565b600060208284031215611b9a57611b996119d7565b5b6000611ba884828501611b6f565b91505092915050565b600073ffffffffffffffffffffffffffffffffffffffff82169050919050565b6000611bdc82611bb1565b9050919050565b611bec81611bd1565b82525050565b6000602082019050611c076000830184611be3565b92915050565b611c1681611bd1565b8114611c2157600080fd5b50565b600081359050611c3381611c0d565b92915050565b60008060408385031215611c5057611c4f6119d7565b5b6000611c5e85828601611c24565b9250506020611c6f85828601611b6f565b9150509250929050565b600080600060608486031215611c9257611c916119d7565b5b6000611ca086828701611c24565b9350506020611cb186828701611c24565b9250506040611cc286828701611b6f565b9150509250925092565b600060208284031215611ce257611ce16119d7565b5b6000611cf084828501611c24565b91505092915050565b611d0281611b4e565b82525050565b6000602082019050611d1d6000830184611cf9565b92915050565b611d2c81611a66565b8114611d3757600080fd5b50565b600081359050611d4981611d23565b92915050565b60008060408385031215611d6657611d656119d7565b5b6000611d7485828601611c24565b9250506020611d8585828601611d3a565b9150509250929050565b600080fd5b600080fd5b7f4e487b7100000000000000000000000000000000000000000000000000000000600052604160045260246000fd5b611dd182611ae2565b810181811067ffffffffffffffff82111715611df057611def611d99565b5b80604052505050565b6000611e036119cd565b9050611e0f8282611dc8565b919050565b600067ffffffffffffffff821115611e2f57611e2e611d99565b5b611e3882611ae2565b9050602081019050919050565b82818337600083830152505050565b6000611e67611e6284611e14565b611df9565b905082815260208101848484011115611e8357611e82611d94565b5b611e8e848285611e45565b509392505050565b600082601f830112611eab57611eaa611d8f565b5b8135611ebb848260208601611e54565b91505092915050565b600080600060608486031215611edd57611edc6119d7565b5b6000611eeb86828701611c24565b935050602084013567ffffffffffffffff811115611f0c57611f0b6119dc565b5b611f1886828701611e96565b925050604084013567ffffffffffffffff811115611f3957611f386119dc565b5b611f4586828701611e96565b9150509250925092565b600067ffffffffffffffff821115611f6a57611f69611d99565b5b611f7382611ae2565b9050602081019050919050565b6000611f93611f8e84611f4f565b611df9565b905082815260208101848484011115611faf57611fae611d94565b5b611fba848285611e45565b509392505050565b600082601f830112611fd757611fd6611d8f565b5b8135611fe7848260208601611f80565b91505092915050565b6000806000806080858703121561200a576120096119d7565b5b600061201887828801611c24565b945050602061202987828801611c24565b935050604061203a87828801611b6f565b925050606085013567ffffffffffffffff81111561205b5761205a6119dc565b5b61206787828801611fc2565b91505092959194509250565b6000806040838503121561208a576120896119d7565b5b600061209885828601611c24565b92505060206120a985828601611c24565b9150509250929050565b7f4e487b7100000000000000000000000000000000000000000000000000000000600052602260045260246000fd5b600060028204905060018216806120fa57607f821691505b60208210810361210d5761210c6120b3565b5b50919050565b60006060820190506121286000830186611be3565b6121356020830185611cf9565b6121426040830184611be3565b949350505050565b7f4552433732313a2055524920717565727920666f72206e6f6e6578697374656e60008201527f7420746f6b656e00000000000000000000000000000000000000000000000000602082015250565b60006121a6602783611aa7565b91506121b18261214a565b604082019050919050565b600060208201905081810360008301526121d581612199565b9050919050565b7f556e617574686f72697a65642041636365737300000000000000000000000000600082015250565b6000612212601383611aa7565b915061221d826121dc565b602082019050919050565b6000602082019050818103600083015261224181612205565b9050919050565b7f4e487b7100000000000000000000000000000000000000000000000000000000600052601160045260246000fd5b600061228282611b4e565b915061228d83611b4e565b92508282019050808211156122a5576122a4612248565b5b92915050565b60008190508160005260206000209050919050565b60006020601f8301049050919050565b600082821b905092915050565b60006008830261230d7fffffffffffffffffffffffffffffffffffffffffffffffffffffffffffffffff826122d0565b61231786836122d0565b95508019841693508086168417925050509392505050565b6000819050919050565b600061235461234f61234a84611b4e565b61232f565b611b4e565b9050919050565b6000819050919050565b61236e83612339565b61238261237a8261235b565b8484546122dd565b825550505050565b600090565b61239761238a565b6123a2818484612365565b505050565b5b818110156123c6576123bb60008261238f565b6001810190506123a8565b5050565b601f82111561240b576123dc816122ab565b6123e5846122c0565b810160208510156123f4578190505b612408612400856122c0565b8301826123a7565b50505b505050565b600082821c905092915050565b600061242e60001984600802612410565b1980831691505092915050565b6000612447838361241d565b9150826002028217905092915050565b61246082611a9c565b67ffffffffffffffff81111561247957612478611d99565b5b61248382546120e2565b61248e8282856123ca565b600060209050601f8311600181146124c157600084156124af578287015190505b6124b9858261243b565b865550612521565b601f1984166124cf866122ab565b60005b828110156124f7578489015182556001820191506020850194506020810190506124d2565b868310156125145784890151612510601f89168261241d565b8355505b6001600288020188555050505b505050505050565b600081905092915050565b600061253f82611a9c565b6125498185612529565b9350612559818560208601611ab8565b80840191505092915050565b60006125718285612534565b915061257d8284612534565b91508190509392505050565b600081519050919050565b600082825260208201905092915050565b60006125b082612589565b6125ba8185612594565b93506125ca818560208601611ab8565b6125d381611ae2565b840191505092915050565b60006080820190506125f36000830187611be3565b6126006020830186611be3565b61260d6040830185611cf9565b818103606083015261261f81846125a5565b905095945050505050565b60008151905061263981611a0d565b92915050565b600060208284031215612655576126546119d7565b5b60006126638482850161262a565b91505092915050565b60006040820190506126816000830185611be3565b61268e6020830184611cf9565b9392505050565b7f4e487b7100000000000000000000000000000000000000000000000000000000600052601260045260246000fdfea2646970667358221220ab688784c887724802c910055a5de7ac189a225db92d463a3327eb4de4caab5664736f6c63430008180033",
  "linkReferences": {},
  "deployedLinkReferences": {}
}